03300000        2043045772000152477400130002576     007081685           AMC - SERVICOS EDUCACIONAIS LTBANCO SANTANDER (BRASIL) S/A            208102015      000126040                                                                          
03382421T01  040 2043045772000152007081685           477400130002576     AMC - SERVICOS EDUCACIONAIS LT                                                                                0000012608102015                                         
0338242300001T 06477400130002576        0000000536792220402002       08072015000000000109632033477160000000000000000020402002002000047856701854LARISSA PEREIRA LEITE DA SILVA          01300025760000000000000000300000000                      
0338242300002U 060000000000055970000000000000000000000000000000000000000000000000000001152290000000001152290000000000000000000000000000000810201509102015000000000000000000000000000                              000                           
0338242300003T 06477400130002576        0000001047264222086935       08102015000000000092950033065210000000000000000022086935002000042443139824MARIA CAROLINA BORGES DANTAS            01300025760000000000000000300000000                      
0338242300004U 060000000000000000000000000000000000000000000000000000000000000000000000929500000000000929500000000000000000000000000000000810201509102015000000000000000000000000000                              000                           
0338242300005T 06477400130002576        0000001072404222095808       08102015000000000082355001681900000000000000000022095808002000042752397844LETTICIA RIBEIRO GONCALVES              01300025760000000000000000400000000                      
0338242300006U 060000000000000000000000000000000000000000000000000000000000000000000000823550000000000823550000000000000000000000000000000810201509102015000000000000000000000000000                              000                           
0338242300007T 06477400130002576        0000001072412222095810       08102015000000000061240399116300000000000000000022095810002000044724596805THAIS SILVA DE MOURA                    01300025760000000000000000400000000                      
0338242300008U 060000000000000000000000000000000000000000000000000000000000000000000000612400000000000612400000000000000000000000000000000810201509102015000000000000000000000000000                              000                           
0338242300009T 06477400130002576        0000001072501222095845       08102015000000000117600001155100000000000000000022095845002000047882766828GABRIEL MENDONCA FERNANDES GOMES        01300025760000000000000000400000000                      
0338242300010U 060000000000000000000000000000000000000000000000000000000000000000000001176000000000001176000000000000000000000000000000000810201509102015000000000000000000000000000                              000                           
0338242300011T 06477400130002576        0000001072528222095857       08102015000000000069685001301100000000000000000022095857002000045032364827RENAN BARBOZA COLMAN SILVA              01300025760000000000000000400000000                      
0338242300012U 060000000000000000000000000000000000000000000000000000000000000000000000696850000000000696850000000000000000000000000000000810201509102015000000000000000000000000000                              000                           
0338242300013T 06477400130002576        0000001072544222095874       08102015000000000069685341486800000000000000000022095874002000044271734896KAIQUE ALBUQUERQUE DE OLIVEIRA          01300025760000000000000000400000000                      
0338242300014U 060000000000000000000000000000000000000000000000000000000000000000000000696850000000000696850000000000000000000000000000000810201509102015000000000000000000000000000                              000                           
0338242300015T 06477400130002576        0000001072617222095890       08102015000000000060940104288800000000000000000022095890002000031390179877LUIZ HENRIQUE LIMA DA SILVA             01300025760000000000000000400000000                      
0338242300016U 060000000000000000000000000000000000000000000000000000000000000000000000609400000000000609400000000000000000000000000000000810201509102015000000000000000000000000000                              000                           
0338242300017T 06477400130002576        0000001047272222086937       08102015000000000072360001120200000000000000000022086937002000041467754854VINICIOS VIEIRA DOS SANTOS              01300025760000000000000000400000000                      
0338242300018U 060000000000000000000000000000000000000000000000000000000000000000000000723600000000000723600000000000000000000000000000000810201509102015000000000000000000000000000                              000                           
0338242300019T 06477400130002576        0000001047361222086981       08102015000000000094080341077000000000000000000022086981002000044516364859THIAGO FREITAS FONSECA                  01300025760000000000000000400000000                      
0338242300020U 060000000000000000000000000000000000000000000000000000000000000000000000940800000000000940800000000000000000000000000000000810201509102015000000000000000000000000000                              000                           
0338242300021T 06477400130002576        0000001047370222086989       08102015000000000101920237141500000000000000000022086989002000043027025830VICTOR RODRIGUES FONSECA                01300025760000000000000000400000000                      
0338242300022U 060000000000000000000000000000000000000000000000000000000000000000000001019200000000001019200000000000000000000000000000000810201509102015000000000000000000000000000                              000                           
0338242300023T 06477400130002576        0000001047426222087005       08102015000000000085800033083110000000000000000022087005002000030532771826CREMILDA SANTOS MONTEIRO                01300025760000000000000000300000000                      
0338242300024U 060000000000000000000000000000000000000000000000000000000000000000000000858000000000000858000000000000000000000000000000000810201509102015000000000000000000000000000                              000                           
0338242300025T 06477400130002576        0000001047442222087021       08102015000000000076020033020110000000000000000022087021002000044979739806GUILHERME PEREIRA DE OLIVEIRA           01300025760000000000000000300000000                      
0338242300026U 060000000000000000000000000000000000000000000000000000000000000000000000760200000000000760200000000000000000000000000000000810201509102015000000000000000000000000000                              000                           
0338242300027T 06477400130002576        0000001047566222087079       08102015000000000094080341078700000000000000000022087079002000044265536875JAQUELINE ZANONI RIBEIRO                01300025760000000000000000400000000                      
0338242300028U 060000000000000000000000000000000000000000000000000000000000000000000000940800000000000940800000000000000000000000000000000810201509102015000000000000000000000000000                              000                           
0338242300029T 06477400130002576        0000001047620222087102       08102015000000000094080341453000000000000000000022087102002000043700398867AMANDA GIL ADAO                         01300025760000000000000000400000000                      
0338242300030U 060000000000000000000000000000000000000000000000000000000000000000000000940800000000000940800000000000000000000000000000000810201509102015000000000000000000000000000                              000                           
0338242300031T 06477400130002576        0000001047680222087114       08102015000000000066480001693900000000000000000022087114002000044580993888FELIPE MACEDO SILVA                     01300025760000000000000000400000000                      
0338242300032U 060000000000000000000000000000000000000000000000000000000000000000000000664800000000000664800000000000000000000000000000000810201509102015000000000000000000000000000                              000                           
0338242300033T 06477400130002576        0000001047744222087136       08102015000000000055400033207610000000000000000022087136002000028773605808ANITA DOS SANTOS DA SILVA               01300025760000000000000000300000000                      
0338242300034U 060000000000000000000000000000000000000000000000000000000000000000000000554000000000000554000000000000000000000000000000000810201509102015000000000000000000000000000                              000                           
0338242300035T 06477400130002576        0000001047752222087141       08102015000000000061800033337310000000000000000022087141002000037505612816AMANDA ALVES DE OLIVEIRA                01300025760000000000000000300000000                      
0338242300036U 060000000000000000000000000000000000000000000000000000000000000000000000618000000000000618000000000000000000000000000000000810201509102015000000000000000000000000000                              000                           
0338242300037T 06477400130002576        0000001047760222087147       08102015000000000055400033062890000000000000000022087147002000039330479863GUILHERME MARTINS DA SILVA              01300025760000000000000000300000000                      
0338242300038U 060000000000000000000000000000000000000000000000000000000000000000000000554000000000000554000000000000000000000000000000000810201509102015000000000000000000000000000                              000                           
0338242300039T 06477400130002576        0000001047795222087157       08102015000000000095025001595200000000000000000022087157002000043595283880GUILHERME TAKESHI ITO SILVA             01300025760000000000000000400000000                      
0338242300040U 060000000000000000000000000000000000000000000000000000000000000000000000950250000000000950250000000000000000000000000000000810201509102015000000000000000000000000000                              000                           
0338242300041T 06477400130002576        0000001047825222087168       08102015000000000076020033477400000000000000000022087168002000042216548804LARISSA PALOTA ZANINI                   01300025760000000000000000300000000                      
0338242300042U 060000000000000000000000000000000000000000000000000000000000000000000000760200000000000760200000000000000000000000000000000810201509102015000000000000000000000000000                              000                           
0338242300043T 06477400130002576        0000001047841222087178       08102015000000000072360104407700000000000000000022087178002000040571870813FABIOLA DE SOUZA RODRIGUES              01300025760000000000000000400000000                      
0338242300044U 060000000000000000000000000000000000000000000000000000000000000000000000723600000000000723600000000000000000000000000000000810201509102015000000000000000000000000000                              000                           
0338242300045T 06477400130002576        0000001047906222087202       08102015000000000091840001680400000000000000000022087202002000038515508893FERNANDA FERREIRA DOS SANTOS            01300025760000000000000000400000000                      
0338242300046U 060000000000000000000000000000000000000000000000000000000000000000000000918400000000000918400000000000000000000000000000000810201509102015000000000000000000000000000                              000                           
0338242300047T 06477400130002576        0000001047957222087234       08102015000000000066480341925200000000000000000022087234002000040161066801JONAS DA SILVA ARAUJO                   01300025760000000000000000400000000                      
0338242300048U 060000000000000000000000000000000000000000000000000000000000000000000000664800000000000664800000000000000000000000000000000810201509102015000000000000000000000000000                              000                           
0338242300049T 06477400130002576        0000001047973222087238       08102015000000000083100341530500000000000000000022087238002000038801295847LUCAS NUNES                             01300025760000000000000000400000000                      
0338242300050U 060000000000000000000000000000000000000000000000000000000000000000000000831000000000000831000000000000000000000000000000000810201509102015000000000000000000000000000                              000                           
0338242300051T 06477400130002576        0000001048023222087269       08102015000000000055400341070900000000000000000022087269002000044144523845BRENDA CAMPELLO BORGES                  01300025760000000000000000400000000                      
0338242300052U 060000000000000000000000000000000000000000000000000000000000000000000000554000000000000554000000000000000000000000000000000810201509102015000000000000000000000000000                              000                           
0338242300053T 06477400130002576        0000001048040222087273       08102015000000000078400104137100000000000000000022087273002000039194667802PEDRO HENRIQUE LIMA SILVEIRA            01300025760000000000000000400000000                      
0338242300054U 060000000000000000000000000000000000000000000000000000000000000000000000784000000000000784000000000000000000000000000000000810201509102015000000000000000000000000000                              000                           
0338242300055T 06477400130002576        0000001072633222095894       08102015000000000117600001682100000000000000000022095894002000044588595873MAURICIO BARROS DE ANDRADE JUNIOR       01300025760000000000000000400000000                      
0338242300056U 060000000000000000000000000000000000000000000000000000000000000000000001176000000000001176000000000000000000000000000000000810201509102015000000000000000000000000000                              000                           
0338242300057T 06477400130002576        0000001072668222095900       08102015000000000066480341076100000000000000000022095900002000047990928809THIAGO SCARDOELLI CORREIA               01300025760000000000000000400000000                      
0338242300058U 060000000000000000000000000000000000000000000000000000000000000000000000664800000000000664800000000000000000000000000000000810201509102015000000000000000000000000000                              000                           
0338242300059T 06477400130002576        0000001072692222095909       08102015000000000091102104415000000000000000000022095909002000038977183839LETICIA DA SILVA BARRETO                01300025760000000000000000400000000                      
0338242300060U 060000000000000000000000000000000000000000000000000000000000000000000000911020000000000911020000000000000000000000000000000810201509102015000000000000000000000000000                              000                           
0338242300061T 06477400130002576        0000001072757222095948       08102015000000000069685237012500000000000000000022095948002000039801687860WILLIAM CORDEIRO FONSECA                01300025760000000000000000400000000                      
0338242300062U 060000000000000000000000000000000000000000000000000000000000000000000000696850000000000696850000000000000000000000000000000810201509102015000000000000000000000000000                              000                           
0338242300063T 06477400130002576        0000001072803222095961       08102015000000000108018341077000000000000000000022095961002000042321758813ROBERTHA BRANDAO RAPCHAN DE SOUZA       01300025760000000000000000400000000                      
0338242300064U 060000000000000000000000000000000000000000000000000000000000000000000001080180000000001080180000000000000000000000000000000810201509102015000000000000000000000000000                              000                           
0338242300065T 06477400130002576        0000001072811222095969       08102015000000000025025341707000000000000000000022095969002000045498452870NATHALY GONSALVES TURASSA               01300025760000000000000000400000000                      
0338242300066U 060000000000000000000000000000000000000000000000000000000000000000000000250250000000000250250000000000000000000000000000000810201509102015000000000000000000000000000                              000                           
0338242300067T 06477400130002576        0000001072862222095985       08102015000000000095822341076200000000000000000022095985002000042733091816JOAO PEDRO ALVES OLIVEIRA               01300025760000000000000000400000000                      
0338242300068U 060000000000000000000000000000000000000000000000000000000000000000000000958220000000000958220000000000000000000000000000000810201509102015000000000000000000000000000                              000                           
0338242300069T 06477400130002576        0000001072870222095987       08102015000000000087282341000200000000000000000022095987002000044581357837LUCAS VILLELA RAMOS                     01300025760000000000000000400000000                      
0338242300070U 060000000000000000000000000000000000000000000000000000000000000000000000872820000000000872820000000000000000000000000000000810201509102015000000000000000000000000000                              000                           
0338242300071T 06477400130002576        0000001072897222095991       08102015000000000077560104213400000000000000000022095991002000043765509817DIORANDE CONTRO NETO                    01300025760000000000000000400000000                      
0338242300072U 060000000000000000000000000000000000000000000000000000000000000000000000775600000000000775600000000000000000000000000000000810201509102015000000000000000000000000000                              000                           
0338242300073T 06477400130002576        0000001072927222096011       08102015000000000077560237015500000000000000000022096011002000042647612803ELIZABETH DE ALMEIDA SANTOS             01300025760000000000000000400000000                      
0338242300074U 060000000000000000000000000000000000000000000000000000000000000000000000775600000000000775600000000000000000000000000000000810201509102015000000000000000000000000000                              000                           
0338242300075T 06477400130002576        0000001072978222096021       08102015000000000095822033012100000000000000000022096021002000042701114888BRUNO DE BARROS ANDRADE                 01300025760000000000000000300000000                      
0338242300076U 060000000000000000000000000000000000000000000000000000000000000000000000958220000000000958220000000000000000000000000000000810201509102015000000000000000000000000000                              000                           
0338242300077T 06477400130002576        0000001072986222096023       08102015000000000156800341014000000000000000000022096023002000037840820840MATHEUS FRANS ROMANO                    01300025760000000000000000400000000                      
0338242300078U 060000000000000000000000000000000000000000000000000000000000000000000001568000000000001568000000000000000000000000000000000810201509102015000000000000000000000000000                              000                           
0338242300079T 06477400130002576        0000001073001222096030       08102015000000000060300033368110000000000000000022096030002000034246499889ISABELA TAMIRIS DE OLIVEIRA RIBEIRO     01300025760000000000000000300000000                      
0338242300080U 060000000000000000000000000000000000000000000000000000000000000000000000603000000000000603000000000000000000000000000000000810201509102015000000000000000000000000000                              000                           
0338242300081T 06477400130002576        0000001073079222096074       08102015000000000094080389032600000000000000000022096074002000042624852859GABRIELA RODRIGUES SANTOS               01300025760000000000000000400000000                      
0338242300082U 060000000000000000000000000000000000000000000000000000000000000000000000940800000000000940800000000000000000000000000000000810201509102015000000000000000000000000000                              000                           
0338242300083T 06477400130002576        0000001073095222096088       08102015000000000055400237009500000000000000000022096088002000042680185811ANDRESSA FREITAS DA SILVA               01300025760000000000000000400000000                      
0338242300084U 060000000000000000000000000000000000000000000000000000000000000000000000554000000000000554000000000000000000000000000000000810201509102015000000000000000000000000000                              000                           
0338242300085T 06477400130002576        0000001073109222096090       08102015000000000094080237136200000000000000000022096090002000045499049840DANIEL DE OLIVEIRA KODA FIORENTINI      01300025760000000000000000400000000                      
0338242300086U 060000000000000000000000000000000000000000000000000000000000000000000000940800000000000940800000000000000000000000000000000810201509102015000000000000000000000000000                              000                           
0338242300087T 06477400130002576        0000001073125222096105       08102015000000000007602341847400000000000000000022096105002000042968031821AMANDA PEREIRA ARAGAO VIEIRA            01300025760000000000000000400000000                      
0338242300088U 060000000000000000000000000000000000000000000000000000000000000000000000076020000000000076020000000000000000000000000000000810201509102015000000000000000000000000000                              000                           
0338242300089T 06477400130002576        0000001073133222096107       08102015000000000076020341871900000000000000000022096107002000042659702810LIVIA GIOVANINI DE LIMA                 01300025760000000000000000400000000                      
0338242300090U 060000000000000000000000000000000000000000000000000000000000000000000000760200000000000760200000000000000000000000000000000810201509102015000000000000000000000000000                              000                           
0338242300091T 06477400130002576        0000001073184222096126       08102015000000000072963341036700000000000000000022096126002000045620136809JENIFFER MEIRELES GUIMARAES             01300025760000000000000000400000000                      
0338242300092U 060000000000000000000000000000000000000000000000000000000000000000000000729630000000000729630000000000000000000000000000000810201509102015000000000000000000000000000                              000                           
0338242300093T 06477400130002576        0000001073192222096128       08102015000000000055400341013900000000000000000022096128002000044783504857HALISSON QUEIROZ MEDEIROS               01300025760000000000000000400000000                      
0338242300094U 060000000000000000000000000000000000000000000000000000000000000000000000554000000000000554000000000000000000000000000000000810201509102015000000000000000000000000000                              000                           
0338242300095T 06477400130002576        0000001073290222096178       08102015000000000126700341706300000000000000000022096178002000012648960856ELVIS CLEVER CAMPOS MACHADO             01300025760000000000000000400000000                      
0338242300096U 060000000000000000000000000000000000000000000000000000000000000000000001267000000000001267000000000000000000000000000000000810201509102015000000000000000000000000000                              000                           
0338242300097T 06477400130002576        0000001073303222096181       08102015000000000066480341001800000000000000000022096181002000038206744894NAYARA FERREIRA DE ALENCAR              01300025760000000000000000400000000                      
0338242300098U 060000000000000000000000000000000000000000000000000000000000000000000000664800000000000664800000000000000000000000000000000810201509102015000000000000000000000000000                              000                           
0338242300099T 06477400130002576        0000001073362222096249       08102015000000000094080341001000000000000000000022096249002000028496945847DILSON SOUZA OLIVEIRA                   01300025760000000000000000400000000                      
0338242300100U 060000000000000000000000000000000000000000000000000000000000000000000000940800000000000940800000000000000000000000000000000810201509102015000000000000000000000000000                              000                           
0338242300101T 06477400130002576        0000001073370222096251       08102015000000000060300341070900000000000000000022096251002000043127265824CAMILLA MARINHO CAPELLANI               01300025760000000000000000400000000                      
0338242300102U 060000000000000000000000000000000000000000000000000000000000000000000000603000000000000603000000000000000000000000000000000810201509102015000000000000000000000000000                              000                           
0338242300103T 06477400130002576        0000001073400222096260       08102015000000000122360237199200000000000000000022096260002000040857134850MARCELO DA SILVA BARBOSA JUNIOR         01300025760000000000000000400000000                      
0338242300104U 060000000000000000000000000000000000000000000000000000000000000000000001223600000000001223600000000000000000000000000000000810201509102015000000000000000000000000000                              000                           
0338242300105T 06477400130002576        0000001073435222096267       08102015000000000022880341076500000000000000000022096267002000037223588845ALEX PINHEIRO ALVES                     01300025760000000000000000400000000                      
0338242300106U 060000000000000000000000000000000000000000000000000000000000000000000000228800000000000228800000000000000000000000000000000810201509102015000000000000000000000000000                              000                           
0338242300107T 06477400130002576        0000001073494222096294       08102015000000000078400237200400000000000000000022096294002000034582903894BRUNO CESAR DE AGUIAR FREITAS           01300025760000000000000000400000000                      
0338242300108U 060000000000000000000000000000000000000000000000000000000000000000000000784000000000000784000000000000000000000000000000000810201509102015000000000000000000000000000                              000                           
0338242300109T 06477400130002576        0000001073508222096305       08102015000000000001500341180000000000000000000022096305002000030885911857HEIDI ABREU DE OLIVEIRA TITICO          01300025760000000000000000400000000                      
0338242300110U 060000000000000000000000000000000000000000000000000000000000000000000000015000000000000015000000000000000000000000000000000810201509102015000000000000000000000000000                              000                           
0338242300111T 06477400130002576        0000001073648222096368       08102015000000000109760033341690000000000000000022096368002000041353275833RODRIGO PASSOS REBOLLO                  01300025760000000000000000300000000                      
0338242300112U 060000000000000000000000000000000000000000000000000000000000000000000001097600000000001097600000000000000000000000000000000810201509102015000000000000000000000000000                              000                           
0338242300113T 06477400130002576        0000001073664222096394       08102015000000000063350341003600000000000000000022096394002000044843848840THAYS MARTINS CRUZ                      01300025760000000000000000400000000                      
0338242300114U 060000000000000000000000000000000000000000000000000000000000000000000000633500000000000633500000000000000000000000000000000810201509102015000000000000000000000000000                              000                           
0338242300115T 06477400130002576        0000001073702222096408       08102015000000000078400033008170000000000000000022096408002000043361035856YAGO HESSEL BARUCCI MARQUES             01300025760000000000000000300000000                      
0338242300116U 060000000000000000000000000000000000000000000000000000000000000000000000784000000000000784000000000000000000000000000000000810201509102015000000000000000000000000000                              000                           
0338242300117T 06477400130002576        0000001073753222096430       08102015000000000063710341640400000000000000000022096430002000044994562822THAYS FERNANDA LINO PIRES FIGUEIREDO    01300025760000000000000000400000000                      
0338242300118U 060000000000000000000000000000000000000000000000000000000000000000000000637100000000000637100000000000000000000000000000000810201509102015000000000000000000000000000                              000                           
0338242300119T 06477400130002576        0000001073761222096436       08102015000000000055400237028700000000000000000022096436002000039604798839FELIPE FRANCISCO DE SOUZA               01300025760000000000000000400000000                      
0338242300120U 060000000000000000000000000000000000000000000000000000000000000000000000554000000000000554000000000000000000000000000000000810201509102015000000000000000000000000000                              000                           
0338242300121T 06477400130002576        0000001073796222096455       08102015000000000078400033362000000000000000000022096455002000040465134890VITOR ALVES FERNANDES                   01300025760000000000000000300000000                      
0338242300122U 060000000000000000000000000000000000000000000000000000000000000000000000784000000000000784000000000000000000000000000000000810201509102015000000000000000000000000000                              000                           
0338242300123T 06477400130002576        0000001073877222096501       08102015000000000066480341076400000000000000000022096501002000045657547896PAULO RICARDO VIANA RAPOSO              01300025760000000000000000400000000                      
0338242300124U 060000000000000000000000000000000000000000000000000000000000000000000000664800000000000664800000000000000000000000000000000810201509102015000000000000000000000000000                              000                           
0338242300125T 06477400130002576        0000001073907222096507       08102015000000000056600237324500000000000000000022096507002000043859145835DIEGO OLIVEIRA GOES                     01300025760000000000000000400000000                      
0338242300126U 060000000000000000000000000000000000000000000000000000000000000000000000566000000000000566000000000000000000000000000000000810201509102015000000000000000000000000000                              000                           
0338242300127T 06477400130002576        0000001048058222087283       08102015000000000063710399165200000000000000000022087283002000041460752899BIANCA ALINE FERREIRA DA ROCHA          01300025760000000000000000400000000                      
0338242300128U 060000000000000000000000000000000000000000000000000000000000000000000000637100000000000637100000000000000000000000000000000810201509102015000000000000000000000000000                              000                           
0338242300129T 06477400130002576        0000001048074222087304       08102015000000000143000001595900000000000000000022087304002000041159492875FELIPE MARTINS BATISTA VALERIO          01300025760000000000000000400000000                      
0338242300130U 060000000000000000000000000000000000000000000000000000000000000000000001430000000000001430000000000000000000000000000000000810201509102015000000000000000000000000000                              000                           
0338242300131T 06477400130002576        0000001048120222087321       08102015000000000148960033342580000000000000000022087321002000042909836851RAFAEL NICOCELLI CARDOSO                01300025760000000000000000300000000                      
0338242300132U 060000000000000000000000000000000000000000000000000000000000000000000001489600000000001489600000000000000000000000000000000810201509102015000000000000000000000000000                              000                           
0338242300133T 06477400130002576        0000001070851222095350       08102015000000000055400341052500000000000000000022095350002000045532116881ADEILSON NUNES DA COSTA                 01300025760000000000000000400000000                      
0338242300134U 060000000000000000000000000000000000000000000000000000000000000000000000554000000000000554000000000000000000000000000000000810201509102015000000000000000000000000000                              000                           
0338242300135T 06477400130002576        0000001070886222095359       08102015000000000126700341842200000000000000000022095359002000046489161826BEATRIZ CRISTINA ROCHA VIEIRA           01300025760000000000000000400000000                      
0338242300136U 060000000000000000000000000000000000000000000000000000000000000000000001267000000000001267000000000000000000000000000000000810201509102015000000000000000000000000000                              000                           
0338242300137T 06477400130002576        0000001070932222095369       08102015000000000066480341076000000000000000000022095369002000045137491802FLAVIA DUARTE OLIVEIRA                  01300025760000000000000000400000000                      
0338242300138U 060000000000000000000000000000000000000000000000000000000000000000000000664800000000000664800000000000000000000000000000000810201509102015000000000000000000000000000                              000                           
0338242300139T 06477400130002576        0000001070959222095376       08102015000000000094080341269600000000000000000022095376002000048882738809JULIA CORONADO CAVICHIA                 01300025760000000000000000400000000                      
0338242300140U 060000000000000000000000000000000000000000000000000000000000000000000000940800000000000940800000000000000000000000000000000810201509102015000000000000000000000000000                              000                           
0338242300141T 06477400130002576        0000001070967222095378       08102015000000000073128237389400000000000000000022095378002000042282927800BIANCA LUCENA                           01300025760000000000000000400000000                      
0338242300142U 060000000000000000000000000000000000000000000000000000000000000000000000731280000000000731280000000000000000000000000000000810201509102015000000000000000000000000000                              000                           
0338242300143T 06477400130002576        0000001070991222095384       08102015000000000088690001681400000000000000000022095384002000047023512810FELIPE FRANCA CUNHA                     01300025760000000000000000400000000                      
0338242300144U 060000000000000000000000000000000000000000000000000000000000000000000000886900000000000886900000000000000000000000000000000810201509102015000000000000000000000000000                              000                           
0338242300145T 06477400130002576        0000001071025222095394       08102015000000000117600001181200000000000000000022095394002000042983822818ARTHUR CASTELO BRANCO WEBER             01300025760000000000000000400000000                      
0338242300146U 060000000000000000000000000000000000000000000000000000000000000000000001176000000000001176000000000000000000000000000000000810201509102015000000000000000000000000000                              000                           
0338242300147T 06477400130002576        0000001071033222095397       08102015000000000023756001694100000000000000000022095397002000046979539833GABRIEL FILIPE SANTOS DE LACERDA        01300025760000000000000000400000000                      
0338242300148U 060000000000000000000000000000000000000000000000000000000000000000000000237560000000000237560000000000000000000000000000000810201509102015000000000000000000000000000                              000                           
0338242300149T 06477400130002576        0000001071076222095408       08102015000000000083100033426840000000000000000022095408002000034959991836BRUNO ALVES FOGACA                      01300025760000000000000000300000000                      
0338242300150U 060000000000000000000000000000000000000000000000000000000000000000000000831000000000000831000000000000000000000000000000000810201509102015000000000000000000000000000                              000                           
0338242300151T 06477400130002576        0000001071106222095417       08102015000000000156800389033500000000000000000022095417002000040280983867LETICIA PEREIRA DE AQUINO               01300025760000000000000000400000000                      
0338242300152U 060000000000000000000000000000000000000000000000000000000000000000000001568000000000001568000000000000000000000000000000000810201509102015000000000000000000000000000                              000                           
0338242300153T 06477400130002576        0000001071130222095426       08102015000000000064600237141500000000000000000022095426002000041860848826CAROLINA BEATRIZ DE SOUSA DIDONET       01300025760000000000000000400000000                      
0338242300154U 060000000000000000000000000000000000000000000000000000000000000000000000646000000000000646000000000000000000000000000000000810201509102015000000000000000000000000000                              000                           
0338242300155T 06477400130002576        0000001071173222095439       08102015000000000066480104165500000000000000000022095439002000036627201836EMANOEL PAULINO MESQUITA DE SOUSA       01300025760000000000000000400000000                      
0338242300156U 060000000000000000000000000000000000000000000000000000000000000000000000664800000000000664800000000000000000000000000000000810201509102015000000000000000000000000000                              000                           
0338242300157T 06477400130002576        0000001071190222095445       08102015000000000094080399045600000000000000000022095445002000043028569809NATHAN EDUARDO AUGUSTO                  01300025760000000000000000400000000                      
0338242300158U 060000000000000000000000000000000000000000000000000000000000000000000000940800000000000940800000000000000000000000000000000810201509102015000000000000000000000000000                              000                           
0338242300159T 06477400130002576        0000001071254222095457       08102015000000000078650341294500000000000000000022095457002000043508032892JOAO RAFAEL LEITE DA CRUZ               01300025760000000000000000400000000                      
0338242300160U 060000000000000000000000000000000000000000000000000000000000000000000000786500000000000786500000000000000000000000000000000810201509102015000000000000000000000000000                              000                           
0338242300161T 06477400130002576        0000001071270222095465       08102015000000000076020341664400000000000000000022095465002000045677942812GUSTAVO VITOR FERNANDES FERREIRA        01300025760000000000000000400000000                      
0338242300162U 060000000000000000000000000000000000000000000000000000000000000000000000760200000000000760200000000000000000000000000000000810201509102015000000000000000000000000000                              000                           
0338242300163T 06477400130002576        0000001071335222095485       08102015000000000060940033077810000000000000000022095485002000042250434875KARINA MESQUITA FERREIRA                01300025760000000000000000300000000                      
0338242300164U 060000000000000000000000000000000000000000000000000000000000000000000000609400000000000609400000000000000000000000000000000810201509102015000000000000000000000000000                              000                           
0338242300165T 06477400130002576        0000001071394222095497       08102015000000000088690341379700000000000000000022095497002000043437993879BRUNO PASCHOALINO MARTINEZ              01300025760000000000000000400000000                      
0338242300166U 060000000000000000000000000000000000000000000000000000000000000000000000886900000000000886900000000000000000000000000000000810201509102015000000000000000000000000000                              000                           
0338242300167T 06477400130002576        0000001071424222095503       08102015000000000076020237010000000000000000000022095503002000045317042828GABRIELLE FRANZ MONTEIRO                01300025760000000000000000400000000                      
0338242300168U 060000000000000000000000000000000000000000000000000000000000000000000000760200000000000760200000000000000000000000000000000810201509102015000000000000000000000000000                              000                           
0338242300169T 06477400130002576        0000001071432222095506       08102015000000000017916104400900000000000000000022095506002000038267252800GIOVANA SILVA DA ROCHA                  01300025760000000000000000400000000                      
0338242300170U 060000000000000000000000000000000000000000000000000000000000000000000000179160000000000179160000000000000000000000000000000810201509102015000000000000000000000000000                              000                           
0338242300171T 06477400130002576        0000001071440222095508       08102015000000000110800237197400000000000000000022095508002000046744354809AMANDA MAGRI DE ABREU                   01300025760000000000000000400000000                      
0338242300172U 060000000000000000000000000000000000000000000000000000000000000000000001108000000000001108000000000000000000000000000000000810201509102015000000000000000000000000000                              000                           
0338242300173T 06477400130002576        0000001071548222095542       08102015000000000078650341775200000000000000000022095542002000031687758867VICTOR AUGUSTO ESTEVAM DE OLIVEIRA      01300025760000000000000000400000000                      
0338242300174U 060000000000000000000000000000000000000000000000000000000000000000000000786500000000000786500000000000000000000000000000000810201509102015000000000000000000000000000                              000                           
0338242300175T 06477400130002576        0000001071580222095555       08102015000000000060940104100600000000000000000022095555002000046181139877GABRIELLY DA SILVA ALVES                01300025760000000000000000400000000                      
0338242300176U 060000000000000000000000000000000000000000000000000000000000000000000000609400000000000609400000000000000000000000000000000810201509102015000000000000000000000000000                              000                           
0338242300177T 06477400130002576        0000001071599222095557       08102015000000000072360341992600000000000000000022095557002000048502644840MARIANE OLIVEIRA DE MELO                01300025760000000000000000400000000                      
0338242300178U 060000000000000000000000000000000000000000000000000000000000000000000000723600000000000723600000000000000000000000000000000810201509102015000000000000000000000000000                              000                           
0338242300179T 06477400130002576        0000001071645222095579       08102015000000000109760341076000000000000000000022095579002000046216713833VICTOR ARAUJO MENDES                    01300025760000000000000000400000000                      
0338242300180U 060000000000000000000000000000000000000000000000000000000000000000000001097600000000001097600000000000000000000000000000000810201509102015000000000000000000000000000                              000                           
0338242300181T 06477400130002576        0000001048147222087325       08102015000000000078400341024300000000000000000022087325002000039645750890SILVANIA DE MATOS LEAL                  01300025760000000000000000400000000                      
0338242300182U 060000000000000000000000000000000000000000000000000000000000000000000000784000000000000784000000000000000000000000000000000810201509102015000000000000000000000000000                              000                           
0338242300183T 06477400130002576        0000001071700222095594       08102015000000000191644104123100000000000000000022095594002000039246296842HIGOR RAMOS DE CARVALHO                 01300025760000000000000000400000000                      
0338242300184U 060000000000000000000000000000000000000000000000000000000000000000000001916440000000001916440000000000000000000000000000000810201509102015000000000000000000000000000                              000                           
0338242300185T 06477400130002576        0000001071742222095609       08102015000000000060940237047400000000000000000022095609002000045859758880BEATRIZ GEOVANNA CASSIANO DE LIMA       01300025760000000000000000400000000                      
0338242300186U 060000000000000000000000000000000000000000000000000000000000000000000000609400000000000609400000000000000000000000000000000810201509102015000000000000000000000000000                              000                           
0338242300187T 06477400130002576        0000001071793222095619       08102015000000000086240001688200000000000000000022095619002000042562258894LUCAS DE OLIVEIRA                       01300025760000000000000000400000000                      
0338242300188U 060000000000000000000000000000000000000000000000000000000000000000000000862400000000000862400000000000000000000000000000000810201509102015000000000000000000000000000                              000                           
0338242300189T 06477400130002576        0000001071840222095632       08102015000000000156800033200950000000000000000022095632002000013579283782LUCAS TEIXEIRA FERNANDES                01300025760000000000000000300000000                      
0338242300190U 060000000000000000000000000000000000000000000000000000000000000000000001568000000000001568000000000000000000000000000000000810201509102015000000000000000000000000000                              000                           
0338242300191T 06477400130002576        0000001071866222095636       08102015000000000066480104116600000000000000000022095636002000003260673377PHELIPE LUCENA RODRIGUES                01300025760000000000000000400000000                      
0338242300192U 060000000000000000000000000000000000000000000000000000000000000000000000664800000000000664800000000000000000000000000000000810201509102015000000000000000000000000000                              000                           
0338242300193T 06477400130002576        0000001071882222095649       08102015000000000060940237311400000000000000000022095649002000043460452862LUCAS CARVALHO MARTINS                  01300025760000000000000000400000000                      
0338242300194U 060000000000000000000000000000000000000000000000000000000000000000000000609400000000000609400000000000000000000000000000000810201509102015000000000000000000000000000                              000                           
0338242300195T 06477400130002576        0000001071890222095651       08102015000000000078650237083000000000000000000022095651002000039755104801JONATHAN HENRIQUE SANTOS DA SILVA       01300025760000000000000000400000000                      
0338242300196U 060000000000000000000000000000000000000000000000000000000000000000000000786500000000000786500000000000000000000000000000000810201509102015000000000000000000000000000                              000                           
0338242300197T 06477400130002576        0000001048155222087330       08102015000000000060300104300600000000000000000022087330002000036644324878RENATO RODRIGUES DA SILVA               01300025760000000000000000400000000                      
0338242300198U 060000000000000000000000000000000000000000000000000000000000000000000000603000000000000603000000000000000000000000000000000810201509102015000000000000000000000000000                              000                           
0338242300199T 06477400130002576        0000001048171222087334       08102015000000000063350001693800000000000000000022087334002000041128364816FERNANDA SHIGASI                        01300025760000000000000000400000000                      
0338242300200U 060000000000000000000000000000000000000000000000000000000000000000000000633500000000000633500000000000000000000000000000000810201509102015000000000000000000000000000                              000                           
0338242300201T 06477400130002576        0000001048201222087340       08102015000000000156800341832900000000000000000022087340002000026976998802ANDRE PIMENTEL DE SOUZA                 01300025760000000000000000400000000                      
0338242300202U 060000000000000000000000000000000000000000000000000000000000000000000001568000000000001568000000000000000000000000000000000810201509102015000000000000000000000000000                              000                           
0338242300203T 06477400130002576        0000001048244222087355       08102015000000000088690104294200000000000000000022087355002000003537608110MATHEUS TERRA DE AZEVEDO E SILVA        01300025760000000000000000400000000                      
0338242300204U 060000000000000000000000000000000000000000000000000000000000000000000000886900000000000886900000000000000000000000000000000810201509102015000000000000000000000000000                              000                           
0338242300205T 06477400130002576        0000001048260222087367       08102015000000000124320341033300000000000000000022087367002000041035443848FABIO GUAZZELLI CAMPOS LIMA             01300025760000000000000000400000000                      
0338242300206U 060000000000000000000000000000000000000000000000000000000000000000000001243200000000001243200000000000000000000000000000000810201509102015000000000000000000000000000                              000                           
0338242300207T 06477400130002576        0000001071920222095657       08102015000000000089840237136500000000000000000022095657002000045238608829FAYNE RAFAELA ARAUJO LOPES              01300025760000000000000000400000000                      
0338242300208U 060000000000000000000000000000000000000000000000000000000000000000000000898400000000000898400000000000000000000000000000000810201509102015000000000000000000000000000                              000                           
0338242300209T 06477400130002576        0000001071947222095661       08102015000000000060940104024000000000000000000022095661002000043417804841GABRIEL VITOR SANTIAGO COSTA            01300025760000000000000000400000000                      
0338242300210U 060000000000000000000000000000000000000000000000000000000000000000000000609400000000000609400000000000000000000000000000000810201509102015000000000000000000000000000                              000                           
0338242300211T 06477400130002576        0000001071955222095663       08102015000000000095025001703100000000000000000022095663002000040823082881BRUNO BARBOSA CEZARINO                  01300025760000000000000000400000000                      
0338242300212U 060000000000000000000000000000000000000000000000000000000000000000000000950250000000000950250000000000000000000000000000000810201509102015000000000000000000000000000                              000                           
0338242300213T 06477400130002576        0000001071998222095674       08102015000000000094080001697000000000000000000022095674002000036739124884MELINA ESTEVES TRESSINO                 01300025760000000000000000400000000                      
0338242300214U 060000000000000000000000000000000000000000000000000000000000000000000000940800000000000940800000000000000000000000000000000810201509102015000000000000000000000000000                              000                           
0338242300215T 06477400130002576        0000001072021222095691       08102015000000000068010104023700000000000000000022095691002000041292415835RAIANY COSTA SOUZA                      01300025760000000000000000400000000                      
0338242300216U 060000000000000000000000000000000000000000000000000000000000000000000000680100000000000680100000000000000000000000000000000810201509102015000000000000000000000000000                              000                           
0338242300217T 06477400130002576        0000001072030222095698       08102015000000000076020341558600000000000000000022095698002000046299783800MYLENA ALVES DO CARMO                   01300025760000000000000000400000000                      
0338242300218U 060000000000000000000000000000000000000000000000000000000000000000000000760200000000000760200000000000000000000000000000000810201509102015000000000000000000000000000                              000                           
0338242300219T 06477400130002576        0000001072064222095710       08102015000000000094080341646900000000000000000022095710002000046979839802LUAN LOPES DE LIMA                      01300025760000000000000000400000000                      
0338242300220U 060000000000000000000000000000000000000000000000000000000000000000000000940800000000000940800000000000000000000000000000000810201509102015000000000000000000000000000                              000                           
0338242300221T 06477400130002576        0000001072218222095756       08102015000000000060940033373620000000000000000022095756002000046698987875LUCIMARA RIBEIRO DOS SANTOS BARROS      01300025760000000000000000300000000                      
0338242300222U 060000000000000000000000000000000000000000000000000000000000000000000000609400000000000609400000000000000000000000000000000810201509102015000000000000000000000000000                              000                           
0338242300223T 06477400130002576        0000001072293222095775       08102015000000000086240237056200000000000000000022095775002000043806779821CAROLINE VIEIRA LOPES                   01300025760000000000000000400000000                      
0338242300224U 060000000000000000000000000000000000000000000000000000000000000000000000862400000000000862400000000000000000000000000000000810201509102015000000000000000000000000000                              000                           
0338242300225T 06477400130002576        0000001048279222087371       08102015000000000098193341721400000000000000000022087371002000042344260838DIEGO RAMALLO MAYTA ORTIZ               01300025760000000000000000400000000                      
0338242300226U 060000000000000000000000000000000000000000000000000000000000000000000000981930000000000981930000000000000000000000000000000810201509102015000000000000000000000000000                              000                           
0338242300227T 06477400130002576        0000001048317222087382       08102015000000000095025341636900000000000000000022087382002000042635850895PAULA SOSCO DA SILVA                    01300025760000000000000000400000000                      
0338242300228U 060000000000000000000000000000000000000000000000000000000000000000000000950250000000000950250000000000000000000000000000000810201509102015000000000000000000000000000                              000                           
0338242300229T 06477400130002576        0000001048333222087386       08102015000000000164710341378500000000000000000022087386002000042628834855GUILHERME CARVALHO ANDRADE DA SILVA     01300025760000000000000000400000000                      
0338242300230U 060000000000000000000000000000000000000000000000000000000000000000000001647100000000001647100000000000000000000000000000000810201509102015000000000000000000000000000                              000                           
0338242300231T 06477400130002576        0000001048368222087402       08102015000000000121520033034170000000000000000022087402002000045545989854INGRID GORI DA COSTA                    01300025760000000000000000300000000                      
0338242300232U 060000000000000000000000000000000000000000000000000000000000000000000001215200000000001215200000000000000000000000000000000810201509102015000000000000000000000000000                              000                           
0338242300233T 06477400130002576        0000001048406222087413       08102015000000000105260033033100000000000000000022087413002000045046040867PAULO GUILHERME LENNON PEREIRA DE CARVAL01300025760000000000000000300000000                      
0338242300234U 060000000000000000000000000000000000000000000000000000000000000000000001052600000000001052600000000000000000000000000000000810201509102015000000000000000000000000000                              000                           
0338242300235T 06477400130002576        0000001048422222087417       08102015000000000155513001705900000000000000000022087417002000039666419840GUILHERME LUIZ PIZA                     01300025760000000000000000400000000                      
0338242300236U 060000000000000000000000000000000000000000000000000000000000000000000001555130000000001555130000000000000000000000000000000810201509102015000000000000000000000000000                              000                           
0338242300237T 06477400130002576        0000001048430222087419       08102015000000000081120033025260000000000000000022087419002000043049690801ALINE KECUR DE CAMPOS                   01300025760000000000000000300000000                      
0338242300238U 060000000000000000000000000000000000000000000000000000000000000000000000811200000000000811200000000000000000000000000000000810201509102015000000000000000000000000000                              000                           
0338242300239T 06477400130002576        0000001048449222087421       08102015000000000066480341668400000000000000000022087421002000034343801837WILLIAN SANTOS SOUZA                    01300025760000000000000000400000000                      
0338242300240U 060000000000000000000000000000000000000000000000000000000000000000000000664800000000000664800000000000000000000000000000000810201509102015000000000000000000000000000                              000                           
0338242300241T 06477400130002576        0000001048546222087452       08102015000000000055400341813600000000000000000022087452002000043546855825INGRID CASSIA ALVES SANCHES             01300025760000000000000000400000000                      
0338242300242U 060000000000000000000000000000000000000000000000000000000000000000000000554000000000000554000000000000000000000000000000000810201509102015000000000000000000000000000                              000                           
0338242300243T 06477400130002576        0000001048554222087455       08102015000000000009408341846400000000000000000022087455002000029338984893ROGERIO DA SILVA SOUSA                  01300025760000000000000000400000000                      
0338242300244U 060000000000000000000000000000000000000000000000000000000000000000000000094080000000000094080000000000000000000000000000000810201509102015000000000000000000000000000                              000                           
0338242300245T 06477400130002576        0000001048619222087480       08102015000000000126700001682100000000000000000022087480002000040920302823ALICE LOPES LIMA MALDONADO ALMEIDA      01300025760000000000000000400000000                      
0338242300246U 060000000000000000000000000000000000000000000000000000000000000000000001267000000000001267000000000000000000000000000000000810201509102015000000000000000000000000000                              000                           
0338242300247T 06477400130002576        0000001048660222087502       08102015000000000066480237218400000000000000000022087502002000044266815883PRISCILA OLIVEIRA DA SILVA              01300025760000000000000000400000000                      
0338242300248U 060000000000000000000000000000000000000000000000000000000000000000000000664800000000000664800000000000000000000000000000000810201509102015000000000000000000000000000                              000                           
0338242300249T 06477400130002576        0000001048694222087509       08102015000000000041709389011400000000000000000022087509002000034038654877ROSANA APARECIDA DOS SANTOS             01300025760000000000000000400000000                      
0338242300250U 060000000000000000000000000000000000000000000000000000000000000000000000417090000000000417090000000000000000000000000000000810201509102015000000000000000000000000000                              000                           
0338242300251T 06477400130002576        0000001072323222095782       08102015000000000060940104292700000000000000000022095782002000043859258877GABRIELLE CRISTINE NOGUEIRA             01300025760000000000000000400000000                      
0338242300252U 060000000000000000000000000000000000000000000000000000000000000000000000609400000000000609400000000000000000000000000000000810201509102015000000000000000000000000000                              000                           
0338242300253T 06477400130002576        0000001072366222095792       08102015000000000095822237054500000000000000000022095792002000036551739890MARINA ABREU DA SILVA                   01300025760000000000000000400000000                      
0338242300254U 060000000000000000000000000000000000000000000000000000000000000000000000958220000000000958220000000000000000000000000000000810201509102015000000000000000000000000000                              000                           
0338242300255T 06477400130002576        0000001069624222095013       08102015000000000117600237176300000000000000000022095013002000047017192850MARIANNE EICHHORN                       01300025760000000000000000400000000                      
0338242300256U 060000000000000000000000000000000000000000000000000000000000000000000001176000000000001176000000000000000000000000000000000810201509102015000000000000000000000000000                              000                           
0338242300257T 06477400130002576        0000001069632222095015       08102015000000000050680341925900000000000000000022095015002000036426944890REBECA CRISTINA MIRANDA                 01300025760000000000000000400000000                      
0338242300258U 060000000000000000000000000000000000000000000000000000000000000000000000506800000000000506800000000000000000000000000000000810201509102015000000000000000000000000000                              000                           
0338242300259T 06477400130002576        0000001069659222095020       08102015000000000076020341296100000000000000000022095020002000045251903880VICTOR NASCIMENTO NUNES DA SILVA        01300025760000000000000000400000000                      
0338242300260U 060000000000000000000000000000000000000000000000000000000000000000000000760200000000000760200000000000000000000000000000000810201509102015000000000000000000000000000                              000                           
0338242300261T 06477400130002576        0000001068342222094558       08102015000000000066480341155300000000000000000022094558002000044060278823GRAZIELA BAHIA COSTA                    01300025760000000000000000400000000                      
0338242300262U 060000000000000000000000000000000000000000000000000000000000000000000000664800000000000664800000000000000000000000000000000810201509102015000000000000000000000000000                              000                           
0338242300263T 06477400130002576        0000001068393222094569       08102015000000000140957341055300000000000000000022094569002000036423854866ALAN MATHIAS LIMA                       01300025760000000000000000400000000                      
0338242300264U 060000000000000000000000000000000000000000000000000000000000000000000001409570000000001409570000000000000000000000000000000810201509102015000000000000000000000000000                              000                           
0338242300265T 06477400130002576        0000001069691222095031       08102015000000000077560341139300000000000000000022095031002000046793765892LARISSA BURLAKOVA BUSINARO              01300025760000000000000000400000000                      
0338242300266U 060000000000000000000000000000000000000000000000000000000000000000000000775600000000000775600000000000000000000000000000000810201509102015000000000000000000000000000                              000                           
0338242300267T 06477400130002576        0000001069721222095037       08102015000000000086240237126100000000000000000022095037002000043297923890ALEXANDRE FERREIRA SOARES DOS SANTOS    01300025760000000000000000400000000                      
0338242300268U 060000000000000000000000000000000000000000000000000000000000000000000000862400000000000862400000000000000000000000000000000810201509102015000000000000000000000000000                              000                           
0338242300269T 06477400130002576        0000001069756222095046       08102015000000000095480033398700000000000000000022095046002000045438472882NATHALIA DEL BIANCHI PEREIRA            01300025760000000000000000300000000                      
0338242300270U 060000000000000000000000000000000000000000000000000000000000000000000000954800000000000954800000000000000000000000000000000810201509102015000000000000000000000000000                              000                           
0338242300271T 06477400130002576        0000001069764222095048       08102015000000000066480341295800000000000000000022095048002000034143296896LUCIANO VEIGA MENDES                    01300025760000000000000000400000000                      
0338242300272U 060000000000000000000000000000000000000000000000000000000000000000000000664800000000000664800000000000000000000000000000000810201509102015000000000000000000000000000                              000                           
0338242300273T 06477400130002576        0000001069772222095052       08102015000000000116141033180230000000000000000022095052002000003152868146MARIA EDUARDA MACIEL GALLIANI           01300025760000000000000000300000000                      
0338242300274U 060000000000000000000000000000000000000000000000000000000000000000000001161410000000001161410000000000000000000000000000000810201509102015000000000000000000000000000                              000                           
0338242300275T 06477400130002576        0000001068407222094571       08102015000000000156800001595800000000000000000022094571002000039688165875JANAINA ARANTES SANTOS                  01300025760000000000000000400000000                      
0338242300276U 060000000000000000000000000000000000000000000000000000000000000000000001568000000000001568000000000000000000000000000000000810201509102015000000000000000000000000000                              000                           
0338242300277T 06477400130002576        0000001068415222094573       08102015000000000210560104165400000000000000000022094573002000041444095897IGOR ADOLPH KITZ                        01300025760000000000000000400000000                      
0338242300278U 060000000000000000000000000000000000000000000000000000000000000000000002105600000000002105600000000000000000000000000000000810201509102015000000000000000000000000000                              000                           
0338242300279T 06477400130002576        0000001068466222094601       08102015000000000080800001853000000000000000000022094601002000038722121846SARAH AZEVEDO BASTOS                    01300025760000000000000000400000000                      
0338242300280U 060000000000000000000000000000000000000000000000000000000000000000000000808000000000000808000000000000000000000000000000000810201509102015000000000000000000000000000                              000                           
0338242300281T 06477400130002576        0000001069780222095054       08102015000000000117600341933300000000000000000022095054002000043106707844RENAN CARVALHO DA SILVA                 01300025760000000000000000400000000                      
0338242300282U 060000000000000000000000000000000000000000000000000000000000000000000001176000000000001176000000000000000000000000000000000810201509102015000000000000000000000000000                              000                           
0338242300283T 06477400130002576        0000001069799222095056       08102015000000000110800001852900000000000000000022095056002000033327189838MATHEUS LAGES PIOTTO                    01300025760000000000000000400000000                      
0338242300284U 060000000000000000000000000000000000000000000000000000000000000000000001108000000000001108000000000000000000000000000000000810201509102015000000000000000000000000000                              000                           
0338242300285T 06477400130002576        0000001069802222095058       08102015000000000076020341650800000000000000000022095058002000039797305813JOAO VICTOR BARBOSA GLORIA              01300025760000000000000000400000000                      
0338242300286U 060000000000000000000000000000000000000000000000000000000000000000000000760200000000000760200000000000000000000000000000000810201509102015000000000000000000000000000                              000                           
0338242300287T 06477400130002576        0000001068474222094603       08102015000000000109760341480700000000000000000022094603002000039326903893NATALIA TONUS FERNANDES DA SILVA        01300025760000000000000000400000000                      
0338242300288U 060000000000000000000000000000000000000000000000000000000000000000000001097600000000001097600000000000000000000000000000000810201509102015000000000000000000000000000                              000                           
0338242300289T 06477400130002576        0000001068504222094612       08102015000000000063350341166500000000000000000022094612002000003047126550CLARA BONFIM CARVALHO LIMA              01300025760000000000000000400000000                      
0338242300290U 060000000000000000000000000000000000000000000000000000000000000000000000633500000000000633500000000000000000000000000000000810201509102015000000000000000000000000000                              000                           
0338242300291T 06477400130002576        0000001068520222094631       08102015000000000203840341021100000000000000000022094631002000040685141861HENRIQUE PICCA BERTOLUCCI               01300025760000000000000000400000000                      
0338242300292U 060000000000000000000000000000000000000000000000000000000000000000000002038400000000002038400000000000000000000000000000000810201509102015000000000000000000000000000                              000                           
0338242300293T 06477400130002576        0000001068580222094662       08102015000000000086428237200400000000000000000022094662002000034976633870ANTONIO WELDER RODRIGUES PINHEIRO       01300025760000000000000000400000000                      
0338242300294U 060000000000000000000000000000000000000000000000000000000000000000000000864280000000000864280000000000000000000000000000000810201509102015000000000000000000000000000                              000                           
0338242300295T 06477400130002576        0000001068628222094686       08102015000000000092950237191100000000000000000022094686002000037718874885LAIS DANTAS DE ALMEIDA                  01300025760000000000000000400000000                      
0338242300296U 060000000000000000000000000000000000000000000000000000000000000000000000929500000000000929500000000000000000000000000000000810201509102015000000000000000000000000000                              000                           
0338242300297T 06477400130002576        0000001068636222094693       08102015000000000019005341791200000000000000000022094693002000038248203824CRISTIANO DA SILVA CARVALHO             01300025760000000000000000400000000                      
0338242300298U 060000000000000000000000000000000000000000000000000000000000000000000000190050000000000190050000000000000000000000000000000810201509102015000000000000000000000000000                              000                           
0338242300299T 06477400130002576        0000001068652222094703       08102015000000000068000033015460000000000000000022094703002000042082672832LUCCAS DE VASCONCELOS CALLEJON          01300025760000000000000000300000000                      
0338242300300U 060000000000000000000000000000000000000000000000000000000000000000000000680000000000000680000000000000000000000000000000000810201509102015000000000000000000000000000                              000                           
0338242300301T 06477400130002576        0000001068725222094720       08102015000000000170971341376800000000000000000022094720002000043066642879HEBERTY MARQUESANI JUNIOR               01300025760000000000000000400000000                      
0338242300302U 060000000000000000000000000000000000000000000000000000000000000000000001709710000000001709710000000000000000000000000000000810201509102015000000000000000000000000000                              000                           
0338242300303T 06477400130002576        0000001068733222094730       08102015000000000078351745000100000000000000000022094730002000022863973843ELIANE ARAUJO DA SILVA                  01300025760000000000000000400000000                      
0338242300304U 060000000000000000000000000000000000000000000000000000000000000000000000783510000000000783510000000000000000000000000000000810201509102015000000000000000000000000000                              000                           
0338242300305T 06477400130002576        0000001068750222094734       08102015000000000078400341791000000000000000000022094734002000036447208867EDGAR ARAUJO PINTO                      01300025760000000000000000400000000                      
0338242300306U 060000000000000000000000000000000000000000000000000000000000000000000000784000000000000784000000000000000000000000000000000810201509102015000000000000000000000000000                              000                           
0338242300307T 06477400130002576        0000001068768222094739       08102015000000000074650341640500000000000000000022094739002000041408252864BRUNA OLIVEIRA LOPES DA SILVA           01300025760000000000000000400000000                      
0338242300308U 060000000000000000000000000000000000000000000000000000000000000000000000746500000000000746500000000000000000000000000000000810201509102015000000000000000000000000000                              000                           
0338242300309T 06477400130002576        0000001068776222094741       08102015000000000063350341831700000000000000000022094741002000043081017866DANIEL DE CASTRO E SILVA                01300025760000000000000000400000000                      
0338242300310U 060000000000000000000000000000000000000000000000000000000000000000000000633500000000000633500000000000000000000000000000000810201509102015000000000000000000000000000                              000                           
0338242300311T 06477400130002576        0000001068784222094743       08102015000000000091840001332700000000000000000022094743002000005087450555MAILSON CARVALHO COSTA                  01300025760000000000000000400000000                      
0338242300312U 060000000000000000000000000000000000000000000000000000000000000000000000918400000000000918400000000000000000000000000000000810201509102015000000000000000000000000000                              000                           
0338242300313T 06477400130002576        0000001068806222094759       08102015000000000094080341006700000000000000000022094759002000041410423824CAIO AUGUSTO DA COSTA SILVEIRA          01300025760000000000000000400000000                      
0338242300314U 060000000000000000000000000000000000000000000000000000000000000000000000940800000000000940800000000000000000000000000000000810201509102015000000000000000000000000000                              000                           
0338242300315T 06477400130002576        0000001068822222094766       08102015000000000143171033381050000000000000000022094766002000043477217810BIANCA SILVA GIMENEZ                    01300025760000000000000000300000000                      
0338242300316U 060000000000000000000000000000000000000000000000000000000000000000000001431710000000001431710000000000000000000000000000000810201509102015000000000000000000000000000                              000                           
0338242300317T 06477400130002576        0000001068881222094789       08102015000000000076020237104300000000000000000022094789002000041918973814THAMIRYS DE SOUZA MARCHESI              01300025760000000000000000400000000                      
0338242300318U 060000000000000000000000000000000000000000000000000000000000000000000000760200000000000760200000000000000000000000000000000810201509102015000000000000000000000000000                              000                           
0338242300319T 06477400130002576        0000001068911222094824       08102015000000000145705341738000000000000000000022094824002000039125549863RENAN BELO DE ARAUJO                    01300025760000000000000000400000000                      
0338242300320U 060000000000000000000000000000000000000000000000000000000000000000000001457050000000001457050000000000000000000000000000000810201509102015000000000000000000000000000                              000                           
0338242300321T 06477400130002576        0000001068946222094830       08102015000000000072360237013700000000000000000022094830002000035039449828NATALIA CANDIDO MARASSE DOS SANTOS      01300025760000000000000000400000000                      
0338242300322U 060000000000000000000000000000000000000000000000000000000000000000000000723600000000000723600000000000000000000000000000000810201509102015000000000000000000000000000                              000                           
0338242300323T 06477400130002576        0000001069063222094865       08102015000000000117831001692900000000000000000022094865002000039581505865CAMILLA DAGOSTINO RIBEIRO DOS SANTOS    01300025760000000000000000400000000                      
0338242300324U 060000000000000000000000000000000000000000000000000000000000000000000001178310000000001178310000000000000000000000000000000810201509102015000000000000000000000000000                              000                           
0338242300325T 06477400130002576        0000001069080222094869       08102015000000000060300104405000000000000000000022094869002000027320119838EVANS MITH LEONI                        01300025760000000000000000400000000                      
0338242300326U 060000000000000000000000000000000000000000000000000000000000000000000000603000000000000603000000000000000000000000000000000810201509102015000000000000000000000000000                              000                           
0338242300327T 06477400130002576        0000001069098222094874       08102015000000000091224237055000000000000000000022094874002000037905117812HENRIQUE ALMEIDA MOTTA                  01300025760000000000000000400000000                      
0338242300328U 060000000000000000000000000000000000000000000000000000000000000000000000912240000000000912240000000000000000000000000000000810201509102015000000000000000000000000000                              000                           
0338242300329T 06477400130002576        0000001069250222094912       08102015000000000160004341375500000000000000000022094912002000001168141877MARCO ANTONIO ERCOLIN                   01300025760000000000000000400000000                      
0338242300330U 060000000000000000000000000000000000000000000000000000000000000000000001600040000000001600040000000000000000000000000000000810201509102015000000000000000000000000000                              000                           
0338242300331T 06477400130002576        0000001069330222094931       08102015000000000109760341159600000000000000000022094931002000045784837893AMANDA FERREIRA NUNES SOUZA             01300025760000000000000000400000000                      
0338242300332U 060000000000000000000000000000000000000000000000000000000000000000000001097600000000001097600000000000000000000000000000000810201509102015000000000000000000000000000                              000                           
0338242300333T 06477400130002576        0000001069365222094950       08102015000000000156800033066610000000000000000022094950002000046562218802GABRIEL DIAS ALBUQUERQUE                01300025760000000000000000300000000                      
0338242300334U 060000000000000000000000000000000000000000000000000000000000000000000001568000000000001568000000000000000000000000000000000810201509102015000000000000000000000000000                              000                           
0338242300335T 06477400130002576        0000001069403222094958       08102015000000000066480237013200000000000000000022094958002000047292892850FABIO SAMARA MASSA FILHO                01300025760000000000000000400000000                      
0338242300336U 060000000000000000000000000000000000000000000000000000000000000000000000664800000000000664800000000000000000000000000000000810201509102015000000000000000000000000000                              000                           
0338242300337T 06477400130002576        0000001069411222094960       08102015000000000094080104121800000000000000000022094960002000042759589854ANGEL BRAGA DE FARIAS                   01300025760000000000000000400000000                      
0338242300338U 060000000000000000000000000000000000000000000000000000000000000000000000940800000000000940800000000000000000000000000000000810201509102015000000000000000000000000000                              000                           
0338242300339T 06477400130002576        0000001069420222094962       08102015000000000081600237200400000000000000000022094962002000039323984833PALOMA DA SILVA DE OLIVEIRA             01300025760000000000000000400000000                      
0338242300340U 060000000000000000000000000000000000000000000000000000000000000000000000816000000000000816000000000000000000000000000000000810201509102015000000000000000000000000000                              000                           
0338242300341T 06477400130002576        0000001069438222094964       08102015000000000066480237663500000000000000000022094964002000037717819813REGINA SILVA DE OLIVEIRA                01300025760000000000000000400000000                      
0338242300342U 060000000000000000000000000000000000000000000000000000000000000000000000664800000000000664800000000000000000000000000000000810201509102015000000000000000000000000000                              000                           
0338242300343T 06477400130002576        0000001069446222094969       08102015000000000066330104165300000000000000000022094969002000041308887817PAMELLA ALVES DE HOLANDA LIMA           01300025760000000000000000400000000                      
0338242300344U 060000000000000000000000000000000000000000000000000000000000000000000000663300000000000663300000000000000000000000000000000810201509102015000000000000000000000000000                              000                           
0338242300345T 06477400130002576        0000001069470222094975       08102015000000000066330104031600000000000000000022094975002000043524239803LEONARDO DOS SANTOS RAIMUNDO            01300025760000000000000000400000000                      
0338242300346U 060000000000000000000000000000000000000000000000000000000000000000000000663300000000000663300000000000000000000000000000000810201509102015000000000000000000000000000                              000                           
0338242300347T 06477400130002576        0000001069489222094980       08102015000000000069685745000100000000000000000022094980002000045025542863SAMUEL ALVES DE ALMEIDA                 01300025760000000000000000400000000                      
0338242300348U 060000000000000000000000000000000000000000000000000000000000000000000000696850000000000696850000000000000000000000000000000810201509102015000000000000000000000000000                              000                           
0338242300349T 06477400130002576        0000001069527222094988       08102015000000000088690237050300000000000000000022094988002000040112733840MAYARA FERREIRA RIBEIRO                 01300025760000000000000000400000000                      
0338242300350U 060000000000000000000000000000000000000000000000000000000000000000000000886900000000000886900000000000000000000000000000000810201509102015000000000000000000000000000                              000                           
0338242300351T 06477400130002576        0000001069551222094994       08102015000000000078020237010000000000000000000022094994002000044541891883LARISSA DE SOUSA SANTOS                 01300025760000000000000000400000000                      
0338242300352U 060000000000000000000000000000000000000000000000000000000000000000000000780200000000000780200000000000000000000000000000000810201509102015000000000000000000000000000                              000                           
0338242300353T 06477400130002576        0000001069578222094998       08102015000000000094080341915900000000000000000022094998002000045499704805CAMILA DOS SANTOS MARTILIANO            01300025760000000000000000400000000                      
0338242300354U 060000000000000000000000000000000000000000000000000000000000000000000000940800000000000940800000000000000000000000000000000810201509102015000000000000000000000000000                              000                           
0338242300355T 06477400130002576        0000001069586222095000       08102015000000000125440237012700000000000000000022095000002000042198527863HENRIQUE ARAUJO SALDANHA                01300025760000000000000000400000000                      
0338242300356U 060000000000000000000000000000000000000000000000000000000000000000000001254400000000001254400000000000000000000000000000000810201509102015000000000000000000000000000                              000                           
0338242300357T 06477400130002576        0000001069608222095004       08102015000000000095025104292900000000000000000022095004002000044417459827THALIA LUANA GALDINO DE BRITO           01300025760000000000000000400000000                      
0338242300358U 060000000000000000000000000000000000000000000000000000000000000000000000950250000000000950250000000000000000000000000000000810201509102015000000000000000000000000000                              000                           
0338242300359T 06477400130002576        0000001069616222095011       08102015000000000074790341910700000000000000000022095011002000033779320894CAROLINA SANTIAGO FREITAS               01300025760000000000000000400000000                      
0338242300360U 060000000000000000000000000000000000000000000000000000000000000000000000747900000000000747900000000000000000000000000000000810201509102015000000000000000000000000000                              000                           
0338242300361T 06477400130002576        0000001069837222095073       08102015000000000117600237266700000000000000000022095073002000042882097816THAMIRES SILVEIRA                       01300025760000000000000000400000000                      
0338242300362U 060000000000000000000000000000000000000000000000000000000000000000000001176000000000001176000000000000000000000000000000000810201509102015000000000000000000000000000                              000                           
0338242300363T 06477400130002576        0000001069845222095075       08102015000000000118200237107300000000000000000022095075002000007258629394LETICIA LUCHETTI GALLI                  01300025760000000000000000400000000                      
0338242300364U 060000000000000000000000000000000000000000000000000000000000000000000001182000000000001182000000000000000000000000000000000810201509102015000000000000000000000000000                              000                           
0338242300365T 06477400130002576        0000001066986222094110       08102015000000000095025341846400000000000000000022094110002000036920863855MILENE KEREN RAMOS CITRINI              01300025760000000000000000400000000                      
0338242300366U 060000000000000000000000000000000000000000000000000000000000000000000000950250000000000950250000000000000000000000000000000810201509102015000000000000000000000000000                              000                           
0338242300367T 06477400130002576        0000001066994222094112       08102015000000000038010033016780000000000000000022094112002000041359645837RAUL BARCELO DE SOUZA                   01300025760000000000000000300000000                      
0338242300368U 060000000000000000000000000000000000000000000000000000000000000000000000380100000000000380100000000000000000000000000000000810201509102015000000000000000000000000000                              000                           
0338242300369T 06477400130002576        0000001067060222094166       08102015000000000094080237123600000000000000000022094166002000043875956800ALINE DE MEDEIROS ASSIS                 01300025760000000000000000400000000                      
0338242300370U 060000000000000000000000000000000000000000000000000000000000000000000000940800000000000940800000000000000000000000000000000810201509102015000000000000000000000000000                              000                           
0338242300371T 06477400130002576        0000001067168222094199       08102015000000000156800341486800000000000000000022094199002000040865204861VICTOR RABELO BRUNO                     01300025760000000000000000400000000                      
0338242300372U 060000000000000000000000000000000000000000000000000000000000000000000001568000000000001568000000000000000000000000000000000810201509102015000000000000000000000000000                              000                           
0338242300373T 06477400130002576        0000001067176222094201       08102015000000000156800341791000000000000000000022094201002000041888870877MONICA VIEIRA COUTO                     01300025760000000000000000400000000                      
0338242300374U 060000000000000000000000000000000000000000000000000000000000000000000001568000000000001568000000000000000000000000000000000810201509102015000000000000000000000000000                              000                           
0338242300375T 06477400130002576        0000001067184222094203       08102015000000000117600033010900000000000000000022094203002000041853345830LUANA SAKIHAMA DOBO                     01300025760000000000000000300000000                      
0338242300376U 060000000000000000000000000000000000000000000000000000000000000000000001176000000000001176000000000000000000000000000000000810201509102015000000000000000000000000000                              000                           
0338242300377T 06477400130002576        0000001067192222094205       08102015000000000126700237268000000000000000000022094205002000025015554818DENIS MAGALHAES PEIXOTO                 01300025760000000000000000400000000                      
0338242300378U 060000000000000000000000000000000000000000000000000000000000000000000001267000000000001267000000000000000000000000000000000810201509102015000000000000000000000000000                              000                           
0338242300379T 06477400130002576        0000001067206222094207       08102015000000000109760033354400000000000000000022094207002000042206717816DOUGLAS MARTINS CARVALHO                01300025760000000000000000300000000                      
0338242300380U 060000000000000000000000000000000000000000000000000000000000000000000001097600000000001097600000000000000000000000000000000810201509102015000000000000000000000000000                              000                           
0338242300381T 06477400130002576        0000001067230222094218       08102015000000000050680237660000000000000000000022094218002000039075194854RENATO LOURENCO GIROTTI                 01300025760000000000000000400000000                      
0338242300382U 060000000000000000000000000000000000000000000000000000000000000000000000506800000000000506800000000000000000000000000000000810201509102015000000000000000000000000000                              000                           
0338242300383T 06477400130002576        0000001067273222094232       08102015000000000156800033020110000000000000000022094232002000037026008846LUIS RICARDO GOMES CIRILO               01300025760000000000000000300000000                      
0338242300384U 060000000000000000000000000000000000000000000000000000000000000000000001568000000000001568000000000000000000000000000000000810201509102015000000000000000000000000000                              000                           
0338242300385T 06477400130002576        0000001067370222094255       08102015000000000122323341021100000000000000000022094255002000041822549884TAILA DE OLIVEIRA LIMA                  01300025760000000000000000400000000                      
0338242300386U 060000000000000000000000000000000000000000000000000000000000000000000001223230000000001223230000000000000000000000000000000810201509102015000000000000000000000000000                              000                           
0338242300387T 06477400130002576        0000001067400222094267       08102015000000000101360001182400000000000000000022094267002000041469168871ANNE CAROLINA DA SILVA GONCALVES        01300025760000000000000000400000000                      
0338242300388U 060000000000000000000000000000000000000000000000000000000000000000000001013600000000001013600000000000000000000000000000000810201509102015000000000000000000000000000                              000                           
0338242300389T 06477400130002576        0000001067443222094275       08102015000000000094080341967300000000000000000022094275002000041967039844ALEXANDRE JOSE MOREDO MARASCO           01300025760000000000000000400000000                      
0338242300390U 060000000000000000000000000000000000000000000000000000000000000000000000940800000000000940800000000000000000000000000000000810201509102015000000000000000000000000000                              000                           
0338242300391T 06477400130002576        0000001067524222094295       08102015000000000076020341055300000000000000000022094295002000034549171820AGDA LIMA                               01300025760000000000000000400000000                      
0338242300392U 060000000000000000000000000000000000000000000000000000000000000000000000760200000000000760200000000000000000000000000000000810201509102015000000000000000000000000000                              000                           
0338242300393T 06477400130002576        0000001067540222094299       08102015000000000089580033392170000000000000000022094299002000042998114881ANA CAROLINA SILVA GOUVEIA              01300025760000000000000000300000000                      
0338242300394U 060000000000000000000000000000000000000000000000000000000000000000000000895800000000000895800000000000000000000000000000000810201509102015000000000000000000000000000                              000                           
0338242300395T 06477400130002576        0000001067567222094304       08102015000000000156800237326700000000000000000022094304002000044182858816JULIANA CHIMATTI GOMES DA ROCHA         01300025760000000000000000400000000                      
0338242300396U 060000000000000000000000000000000000000000000000000000000000000000000001568000000000001568000000000000000000000000000000000810201509102015000000000000000000000000000                              000                           
0338242300397T 06477400130002576        0000001067605222094314       08102015000000000090450341963900000000000000000022094314002000042150402807GIOVANNA ZANE VILHEGAS NOGUEIRA         01300025760000000000000000400000000                      
0338242300398U 060000000000000000000000000000000000000000000000000000000000000000000000904500000000000904500000000000000000000000000000000810201509102015000000000000000000000000000                              000                           
0338242300399T 06477400130002576        0000001067648222094323       08102015000000000145705104403700000000000000000022094323002000037233375895FELIPE TYMOTHEO                         01300025760000000000000000400000000                      
0338242300400U 060000000000000000000000000000000000000000000000000000000000000000000001457050000000001457050000000000000000000000000000000810201509102015000000000000000000000000000                              000                           
0338242300401T 06477400130002576        0000001067664222094327       08102015000000000066480001702500000000000000000022094327002000022839670828LARISSA GIAMPAULO                       01300025760000000000000000400000000                      
0338242300402U 060000000000000000000000000000000000000000000000000000000000000000000000664800000000000664800000000000000000000000000000000810201509102015000000000000000000000000000                              000                           
0338242300403T 06477400130002576        0000001067702222094335       08102015000000000070250237271800000000000000000022094335002000041291478892JULIANA BAZILIO MAROSTICA               01300025760000000000000000400000000                      
0338242300404U 060000000000000000000000000000000000000000000000000000000000000000000000702500000000000702500000000000000000000000000000000810201509102015000000000000000000000000000                              000                           
0338242300405T 06477400130002576        0000001067710222094337       08102015000000000156294237247700000000000000000022094337002000041674541813WANDERLEY LOBREGAT NETO                 01300025760000000000000000400000000                      
0338242300406U 060000000000000000000000000000000000000000000000000000000000000000000001562940000000001562940000000000000000000000000000000810201509102015000000000000000000000000000                              000                           
0338242300407T 06477400130002576        0000001067737222094347       08102015000000000094080104310800000000000000000022094347002000039125775871LEONI NUNES MARISCA                     01300025760000000000000000400000000                      
0338242300408U 060000000000000000000000000000000000000000000000000000000000000000000000940800000000000940800000000000000000000000000000000810201509102015000000000000000000000000000                              000                           
0338242300409T 06477400130002576        0000001067745222094349       08102015000000000104469237258300000000000000000022094349002000041919110828BIANCA MARQUES RIBEIRO DE SOUZA         01300025760000000000000000400000000                      
0338242300410U 060000000000000000000000000000000000000000000000000000000000000000000001044690000000001044690000000000000000000000000000000810201509102015000000000000000000000000000                              000                           
0338242300411T 06477400130002576        0000001067761222094353       08102015000000000126700237005400000000000000000022094353002000041361127856BEATRIZ DO CARMO LEANDRO ARANDAS        01300025760000000000000000400000000                      
0338242300412U 060000000000000000000000000000000000000000000000000000000000000000000001267000000000001267000000000000000000000000000000000810201509102015000000000000000000000000000                              000                           
